:100000000C942A000C9447000C9447000C94470071
:100010000C9447000C9447000C9447000C94470044
:100020000C9447000C9447000C94F8000C94CC00FE
:100030000C9482000C941F010C9447000C94460110
:100040000C9447000C9447000C9447000C94470014
:100050000C94470011241FBECFE5D8E0DEBFCDBF12
:1000600010E0A0E6B0E0EEEDF2E002C005900D92E7
:10007000A036B107D9F720E0A0E6B0E001C01D929C
:10008000A137B207E1F70E944D000C946D010C946A
:1000900000008BB380958BBB0895CF93DF93CDB7D2
:1000A000DEB728970FB6F894DEBF0FBECDBF61E074
:1000B00089E390E00E946F00789488E0898382E071
:1000C0008A838B831C8289E490E098878F83CE019A
:1000D00001960E94AC0080EF0E94CA00FFCF613001
:1000E00021F42FEFFC0121830895611104C0FC016C
:1000F000118212820895623021F4FC0111822FEFE7
:10010000228308951F920F920FB60F9211242F93FE
:100110003F934F935F936F937F938F939F93AF938F
:10012000BF93EF93FF93E0916000F0916100008432
:10013000F185E02D0995FF91EF91BF91AF919F91CE
:100140008F917F916F915F914F913F912F910F9080
:100150000FBE0F901F901895CF93DF93EC0188E0AE
:10016000FE01A4E6B0E001900D928A95E1F793B705
:100170008881892B83BF93B78981892B83BF99B7E6
:100180008B81892B89BF99B78A81892B89BFDF91A0
:10019000CF9108958CBF08951F920F920FB60F92C2
:1001A00011242F933F934F935F936F937F938F937C
:1001B0009F93AF93BF93EF93FF9380916C008F5FFA
:1001C00080936C00E0916800F09169000995FF91BF
:1001D000EF91BF91AF919F918F917F916F915F91BF
:1001E0004F913F912F910F900FBE0F901F90189538
:1001F0001F920F920FB60F9211242F933F934F939C
:100200005F936F937F938F939F93AF93BF93EF937E
:10021000FF93E0916A00F0916B000995FF91EF91D7
:10022000BF91AF919F918F917F916F915F914F910E
:100230003F912F910F900FBE0F901F9018951F9216
:100240000F920FB60F9211242F933F934F935F930A
:100250006F937F938F939F93AF93BF93EF93FF938E
:10026000E0916D00F0916E000995FF91EF91BF91C3
:10027000AF919F918F917F916F915F914F913F913E
:100280002F910F900FBE0F901F9018951F920F92F5
:100290000FB60F9211242F933F934F935F936F9359
:1002A0007F938F939F93AF93BF93EF93FF93E091CF
:1002B0006D00F0916E000995FF91EF91BF91AF91A4
:1002C0009F918F917F916F915F914F913F912F916E
:0E02D0000F900FBE0F901F901895F894FFCF5F
:00000001FF
