:100000000C942A000C9447000C9447000C94470071
:100010000C9447000C9447000C9447000C94470044
:100020000C9447000C9447000C9447000C94470034
:100030000C94DA000C9404010C9447000C942B01EE
:100040000C9447000C9447000C9447000C94470014
:100050000C94470011241FBECFE5D8E0DEBFCDBF12
:1000600010E0A0E6B0E0E8EAF2E002C005900D92F0
:10007000A036B107D9F720E0A0E6B0E001C01D929C
:10008000A836B207E1F70E9451000C9452010C947B
:10009000000088E181BD11BC089581B58F6081BDEC
:1000A000089541E060E083E390E00E94820041E037
:1000B00060E083E390E00E94B4002FEF81EE94E0D3
:1000C000215080409040E1F700C000000E944D00A8
:1000D0002FEF80E792E0215080409040E1F700C090
:1000E000000060E083E390E00E94CE002FEF8DE3FC
:1000F00099E4215080409040E1F700C000000E9448
:100100004900E4CFFC01413059F4218181E090E0C5
:1001100002C0880F991F6A95E2F7822B81830895A8
:10012000411110C0218181E090E002C0880F991F29
:100130006A95E2F78095922F982391839281892383
:1001400082830895423079F4218181E090E002C0F9
:10015000880F991F6A95E2F7982F909592239183C3
:100160009281892B82830895FC01413059F42281C8
:1001700081E090E002C0880F991F6A95E2F7822B18
:1001800082830895928121E030E002C0220F331F64
:100190006A95E2F72095292322830895FC01428184
:1001A00021E030E002C0220F331F6A95E2F72427D6
:1001B000228308951F920F920FB60F9211242F934E
:1001C0003F934F935F936F937F938F939F93AF93DF
:1001D000BF93EF93FF93E0916000F0916100008482
:1001E000F185E02D0995FF91EF91BF91AF919F911E
:1001F0008F917F916F915F914F913F912F910F90D0
:100200000FBE0F901F9018951F920F920FB60F926E
:1002100011242F933F934F935F936F937F938F930B
:100220009F93AF93BF93EF93FF93E0916400F0919E
:1002300065000995FF91EF91BF91AF919F918F91CB
:100240007F916F915F914F913F912F910F900FBED2
:100250000F901F9018951F920F920FB60F921124B6
:100260002F933F934F935F936F937F938F939F93BE
:10027000AF93BF93EF93FF93E0916400F09165001B
:100280000995FF91EF91BF91AF919F918F917F91D0
:100290006F915F914F913F912F910F900FBE0F90F3
:0802A0001F901895F894FFCFA0
:00000001FF
