:100000000C942A000C9447000C9447000C94470071
:100010000C9447000C9447000C9447000C94470044
:100020000C9447000C9447000C9427010C94FB009F
:100030000C9495000C944E010C9447000C9475019F
:100040000C9447000C9447000C9447000C94470014
:100050000C94470011241FBECFE5D8E0DEBFCDBF12
:1000600010E0A0E6B0E0ECE3F3E002C005900D92F2
:10007000A036B107D9F720E0A0E6B0E001C01D929C
:10008000A137B207E1F70E9449000C949C010C943F
:100090000000CF93DF93CDB7DEB728970FB6F89463
:1000A000DEBF0FBECDBF88E6898382E08A831B82D4
:1000B0001C8218861F82CE0101960E94BF0084E632
:1000C0000E94F000FCCFFC01413059F4218181E015
:1000D00090E002C0880F991F6A95E2F7822B818316
:1000E0000895411110C0218181E090E002C0880F85
:1000F000991F6A95E2F78095922F982391839281B8
:10010000892382830895423079F4218181E090E04F
:1001100002C0880F991F6A95E2F7982F9095922355
:1001200091839281892B828308951F920F920FB63B
:100130000F9211242F933F934F935F936F937F936D
:100140008F939F93AF93BF93EF93FF93E0916000E2
:10015000F09161000084F185E02D0995FF91EF9108
:10016000BF91AF919F918F917F916F915F914F91CF
:100170003F912F910F900FBE0F901F901895CF9326
:10018000DF93EC0188E0FE01A4E6B0E001900D925F
:100190008A95E1F793B78881892B83BF88818F7E09
:1001A000883631F441E063E086E390E00E9463002A
:1001B00093B78981892B83BF99B78B81892B89BF9D
:1001C00099B78A81892B89BF8A81823019F08B8106
:1001D000813019F48FB780688FBFDF91CF91089578
:1001E00090916400983719F480958CBF08959836E3
:1001F00009F48CBF08951F920F920FB60F9211242D
:100200002F933F934F935F936F937F938F939F931E
:10021000AF93BF93EF93FF9380916C008F5F8093B8
:100220006C00E0916800F09169000995FF91EF91F1
:10023000BF91AF919F918F917F916F915F914F91FE
:100240003F912F910F900FBE0F901F9018951F9206
:100250000F920FB60F9211242F933F934F935F93FA
:100260006F937F938F939F93AF93BF93EF93FF937E
:10027000E0916A00F0916B000995FF91EF91BF91B9
:10028000AF919F918F917F916F915F914F913F912E
:100290002F910F900FBE0F901F9018951F920F92E5
:1002A0000FB60F9211242F933F934F935F936F9349
:1002B0007F938F939F93AF93BF93EF93FF93E091BF
:1002C0006D00F0916E000995FF91EF91BF91AF9194
:1002D0009F918F917F916F915F914F913F912F915E
:1002E0000F900FBE0F901F9018951F920F920FB690
:1002F0000F9211242F933F934F935F936F937F93AC
:100300008F939F93AF93BF93EF93FF93E0916D0013
:10031000F0916E000995FF91EF91BF91AF919F9180
:100320008F917F916F915F914F913F912F910F909E
:0C0330000FBE0F901F901895F894FFCF9F
:00000001FF
