:100000000C942A000C9447000C9447000C94470071
:100010000C9447000C9447000C9447000C94470044
:100020000C9447000C9447000C94C0020C9494026A
:100030000C946A020C94E7020C9447000C940E0393
:100040000C94FE010C9447000C9447000C9447005C
:100050000C94470011241FBECFE5D8E0DEBFCDBF12
:1000600010E0A0E6B0E0E4EAFCE002C005900D92EA
:10007000A037B107D9F720E0A0E7B0E001C01D929A
:10008000AA39B207E1F70E9479010C9450060C944A
:100090000000C3980000000083ED90E30197F1F7A2
:1000A00000C00000C39A0895CF93C82F8BB38F7000
:1000B0009C2F907F892B8BBB88B3897F88BB0E9444
:1000C000490087EA91E60197F1F700C000008BB381
:1000D000282F2F7030E1C39FC0011124822B8BBBCE
:1000E00088B3897F88BB0E944900CF910895CF9340
:1000F000C82F8BB38F709C2F907F892B8BBBC19A9D
:10010000C2980E9449008BB3282F2F7030E1C39F03
:10011000C0011124822B8BBBC19AC2980E94490056
:10012000CF91089581E00E945400089587E893E1FB
:100130000197F1F700C0000087B38E6087BB88B3DA
:10014000817F88BB85EA9EE00197F1F700C000003F
:100150000E9492008AB3806F8ABB82E00E945400A2
:1001600088E20E94540086E00E94540080E80E94C9
:1001700054008FE00E94540008950F931F93CF9373
:10018000DF938C01C0E0D0E014C021960E9477007C
:10019000C031D10521F480EC0E9454000AC0C03265
:1001A000D10539F40E94920080E80E945400C0E01A
:1001B000D0E0F80181918F018111E7CFDF91CF91DC
:1001C0001F910F910895811107C0603168F480E894
:1001D000860F0E9454000895813031F4603120F47C
:1001E00080EC860F0E9454000895CF93DF9380E740
:1001F00090E00E94F0018091700082BB80917100BC
:1002000085BB2091700030917100809160009091C9
:1002100061002817390709F45FC00E94920082E646
:1002200090E00E94BD002091700030917100A4E622
:10023000B0E00E9457032FEF33E040E050E00E940F
:100240003503D22FC32F69E080E00E94E300CF93F3
:10025000DF938CE690E09F938F9382E790E09F93EB
:100260008F930E94660382E790E00E94BD006CE0DD
:1002700080E00E94E30085E20E9477002D2F3C2F52
:10028000ADECBCEC0E9457039695879596958795A3
:100290009695879590937D0080937C0060E081E047
:1002A0000E94E3000F900F900F900F900F900F900F
:1002B00080917C0090917D00892B71F0C0E08FEFE0
:1002C0000E947700CF5F2C2F30E080917C009091CE
:1002D0007D002817390798F3809170009091710084
:1002E00090936100809360000E94E401DF91CF91C0
:1002F0000895CF93DF93CDB7DEB729970FB6F89463
:10030000DEBF0FBECDBF61E080E390E00E945702E8
:1003100061E083E390E00E94570240E060E089E3FF
:1003200090E00E9425020E9496001C8280E28D834C
:100330001E821B8288E08F8385EF90E099878887F3
:1003400087E089831A82CE0101960E94AA010E9449
:10035000E401FFCFCF93DF93EC0189E0FE01A0E839
:10036000B0E001900D928A95E1F797B18B81892BCE
:100370009981892B9A81892B87B996B18C81892B98
:1003800086B98C81803221F490B78D81892B80BF12
:1003900096B18E81892B86B98E81883051F48FB7C2
:1003A00080688FBF8F81988590937F0080937E00B7
:1003B00007C08FB78F778FBF10927F0010927E009B
:1003C000379ADF91CF91089580918400803231F483
:1003D00086B182958695877009F4359A369A089584
:1003E000FC0196B192959F70E1F324B130E0318326
:1003F000208385B1382B3183208308951F920F927B
:100400000FB60F9211242F933F934F935F936F93E7
:100410007F938F939F93AF93BF93EF93FF93E0915D
:100420007E00F0917F000995FF91EF91BF91AF9110
:100430009F918F917F916F915F914F913F912F91FC
:100440000F900FBE0F901F901895FC01413059F48A
:10045000218181E090E002C0880F991F6A95E2F740
:10046000822B81830895411110C0218181E090E0A9
:1004700002C0880F991F6A95E2F78095922F982302
:1004800091839281892382830895423079F4218176
:1004900081E090E002C0880F991F6A95E2F7982FDB
:1004A0009095922391839281892B82830895613064
:1004B00021F42FEFFC0121830895611104C0FC0198
:1004C000118212820895623021F4FC0111822FEF13
:1004D000228308951F920F920FB60F9211242F932B
:1004E0003F934F935F936F937F938F939F93AF93BC
:1004F000BF93EF93FF93E0918900F0918A0000840D
:10050000F185E02D0995FF91EF91BF91AF919F91FA
:100510008F917F916F915F914F913F912F910F90AC
:100520000FBE0F901F9018951F920F920FB60F924B
:1005300011242F933F934F935F936F937F938F93E8
:100540009F93AF93BF93EF93FF93809195008F5F3D
:1005500080939500E0919100F09192000995FF91B0
:10056000EF91BF91AF919F918F917F916F915F912B
:100570004F913F912F910F900FBE0F901F901895A4
:100580001F920F920FB60F9211242F933F934F9308
:100590005F936F937F938F939F93AF93BF93EF93EB
:1005A000FF93E0919300F09194000995FF91EF91F2
:1005B000BF91AF919F918F917F916F915F914F917B
:1005C0003F912F910F900FBE0F901F9018951F9283
:1005D0000F920FB60F9211242F933F934F935F9377
:1005E0006F937F938F939F93AF93BF93EF93FF93FB
:1005F000E0919600F09197000995FF91EF91BF91DE
:10060000AF919F918F917F916F915F914F913F91AA
:100610002F910F900FBE0F901F9018951F920F9261
:100620000FB60F9211242F933F934F935F936F93C5
:100630007F938F939F93AF93BF93EF93FF93E0913B
:100640009600F09197000995FF91EF91BF91AF91BE
:100650009F918F917F916F915F914F913F912F91DA
:100660000F900FBE0F901F901895A1E21A2EAA1B93
:10067000BB1BFD010DC0AA1FBB1FEE1FFF1FA21752
:10068000B307E407F50720F0A21BB30BE40BF50B4F
:10069000661F771F881F991F1A9469F760957095D8
:1006A000809590959B01AC01BD01CF010895A29F5B
:1006B000B001B39FC001A39F700D811D1124911D36
:1006C000B29F700D811D1124911D0895AEE0B0E020
:1006D000ECE6F3E00C9427060D891E8986E08C83F6
:1006E0001A8309838FEF9FE79E838D83AE01475E58
:1006F0005F4F6F89788DCE0101960E948803EF814C
:10070000F885E00FF11F10822E96E4E00C9443066A
:10071000ABE0B0E0EEE8F3E00C9419066C017B016D
:100720008A01FC0117821682838181FFCCC1CE0130
:1007300001963C01F6019381F70193FD859193FFAA
:1007400081917F01882309F4BAC1853239F493FD80
:10075000859193FF81917F01853229F4B60190E064
:100760000E947F05E7CF912C212C312CFFE1F3155E
:10077000D8F08B3279F038F4803279F08332A1F4FA
:10078000232D20611DC08D3261F0803369F4232D4B
:10079000216016C0832D8260382EE32DE4603E2E4A
:1007A0002AC0F32DF8601DC037FC2DC020ED280FA6
:1007B0002A3040F08E32B9F436FC81C1232D2064FA
:1007C000322E19C036FE06C08AE0989E200D1124F4
:1007D000922E11C0EAE02E9E200D1124222EF32D20
:1007E000F0623F2E08C08C3621F4832D8068382EAD
:1007F00002C0883641F4F70193FD859193FF819102
:100800007F018111B3CF982F9F7D9554933028F4A9
:100810000C5F1F4F9FE399830DC0833631F0833700
:1008200071F0833509F059C021C0F80180818983B6
:100830000E5F1F4F88248394912C530113C028010D
:10084000F2E04F0E511CF801A080B18036FE03C0CB
:10085000692D70E002C06FEF7FEFC5010E94740543
:100860004C018201F32DFF773F2E16C0280122E0B4
:10087000420E511CF801A080B18036FE03C0692DE4
:1008800070E002C06FEF7FEFC5010E9469054C0167
:10089000F32DF0683F2E820133FC1BC0822D90E0C7
:1008A00088169906B0F4B60180E290E00E947F05B8
:1008B0002A94F4CFF50137FC859137FE81915F01D1
:1008C000B60190E00E947F0521102A9421E0821A4F
:1008D00091088114910471F7E8C0843611F08936CB
:1008E00041F5F80137FE07C06081718182819381F3
:1008F0000C5F1F4F08C060817181072E000C880BB0
:10090000990B0E5F1F4FF32DFF763F2E97FF09C007
:1009100090958095709561957F4F8F4F9F4FF068B0
:100920003F2E2AE030E0A3010E94BB05882E8618E6
:1009300045C0853731F4232D2F7EB22E2AE030E0DA
:1009400025C0932D997FB92E8F36C1F018F48835C4
:1009500079F0B5C0803719F0883721F0B0C0E92FA1
:10096000E061BE2EB4FE0DC0FB2DF460BF2E09C0A9
:1009700034FE0AC0292F2660B22E06C028E030E0DF
:1009800005C020E130E002C020E132E0F801B7FE0E
:1009900007C060817181828193810C5F1F4F06C007
:1009A0006081718180E090E00E5F1F4FA3010E9483
:1009B000BB05882E8618FB2DFF773F2E36FE0DC017
:1009C000232D2E7FA22E891458F434FE0BC032FC46
:1009D00009C0832D8E7EA82E05C0B82CA32C03C081
:1009E000B82C01C0B92CA4FE0FC0FE01E80DF11D0A
:1009F0008081803321F49A2D997EA92E09C0A2FE10
:100A000006C0B394B39404C08A2D867809F0B394D9
:100A1000A3FC11C0A0FE06C0B21488F4280C922CCE
:100A20009B180EC0B21460F4B60180E290E00E9400
:100A30007F05B394F7CFB21418F42B1802C0982C8A
:100A4000212CA4FE10C0B60180E390E00E947F0537
:100A5000A2FE17C0A1FC03C088E790E002C088E5B1
:100A600090E0B6010CC08A2D867859F0A1FE02C034
:100A70008BE201C080E2A7FC8DE2B60190E00E940B
:100A80007F05891438F4B60180E390E00E947F0569
:100A90009A94F7CF8A94F301E80DF11D8081B60195
:100AA00090E00E947F058110F5CF222009F442CE0C
:100AB000B60180E290E00E947F052A94F6CFF6010D
:100AC0008681978102C08FEF9FEF2B96E2E10C9415
:100AD0003506FC010590615070400110D8F78095F3
:100AE00090958E0F9F1F0895FC01615070400190FA
:100AF0000110D8F7809590958E0F9F1F08950F9342
:100B00001F93CF93DF93FB01238121FD03C08FEF60
:100B10009FEF2CC022FF16C046815781248135816A
:100B20004217530744F4A081B1819D012F5F3F4FCD
:100B3000318320838C93268137812F5F3F4F37830A
:100B4000268314C08B01EC01FB010084F185E02DAC
:100B50000995892BE1F6D80116968D919C911797EE
:100B6000019617969C938E931697CE01DF91CF91A5
:100B70001F910F910895FA01AA27283051F12031D1
:100B800081F1E8946F936E7F6E5F7F4F8F4F9F4F21
:100B9000AF4FB1E03ED0B4E03CD0670F781F891F63
:100BA0009A1FA11D680F791F8A1F911DA11D6A0F31
:100BB000711D811D911DA11D20D009F468943F91E4
:100BC0002AE0269F11243019305D3193DEF6CF01E3
:100BD0000895462F4770405D4193B3E00FD0C9F7A9
:100BE000F6CF462F4F70405D4A3318F0495D31FD16
:100BF0004052419302D0A9F7EACFB4E0A695979569
:100C0000879577956795BA95C9F70097610571053E
:100C100008959B01AC010A2E069457954795379588
:100C20002795BA95C9F7620F731F841F951FA01DE2
:100C300008952F923F924F925F926F927F928F9280
:100C40009F92AF92BF92CF92DF92EF92FF920F935B
:100C50001F93CF93DF93CDB7DEB7CA1BDB0B0FB665
:100C6000F894DEBF0FBECDBF09942A883988488822
:100C70005F846E847D848C849B84AA84B984C884B8
:100C8000DF80EE80FD800C811B81AA81B981CE0FAF
:100C9000D11D0FB6F894DEBF0FBECDBFED01089594
:040CA000F894FFCFF6
:100CA400FFFF50657263656E743A2000257500007D
:00000001FF
